{
  "contractName": "Crowdfunder",
  "abi": [
    {
      "inputs": [],
      "payable": false,
      "stateMutability": "nonpayable",
      "type": "constructor"
    },
    {
      "anonymous": false,
      "inputs": [
        {
          "indexed": true,
          "internalType": "uint256",
          "name": "id",
          "type": "uint256"
        },
        {
          "indexed": false,
          "internalType": "uint256",
          "name": "amount",
          "type": "uint256"
        },
        {
          "indexed": false,
          "internalType": "address payable",
          "name": "donor",
          "type": "address"
        },
        {
          "indexed": false,
          "internalType": "address payable",
          "name": "fundOwner",
          "type": "address"
        }
      ],
      "name": "DonationMade",
      "type": "event"
    },
    {
      "anonymous": false,
      "inputs": [
        {
          "indexed": false,
          "internalType": "uint256",
          "name": "id",
          "type": "uint256"
        },
        {
          "indexed": false,
          "internalType": "string",
          "name": "name",
          "type": "string"
        },
        {
          "indexed": false,
          "internalType": "address payable",
          "name": "fundOwner",
          "type": "address"
        },
        {
          "indexed": false,
          "internalType": "uint256",
          "name": "targetAmount",
          "type": "uint256"
        },
        {
          "indexed": false,
          "internalType": "uint256",
          "name": "currentAmount",
          "type": "uint256"
        }
      ],
      "name": "FundCreated",
      "type": "event"
    },
    {
      "anonymous": false,
      "inputs": [
        {
          "indexed": false,
          "internalType": "uint256",
          "name": "id",
          "type": "uint256"
        },
        {
          "indexed": false,
          "internalType": "string",
          "name": "name",
          "type": "string"
        },
        {
          "indexed": false,
          "internalType": "address payable",
          "name": "fundOwner",
          "type": "address"
        },
        {
          "indexed": false,
          "internalType": "uint256",
          "name": "targetAmount",
          "type": "uint256"
        },
        {
          "indexed": false,
          "internalType": "uint256",
          "name": "currentAmount",
          "type": "uint256"
        }
      ],
      "name": "FundDeleted",
      "type": "event"
    },
    {
      "constant": true,
      "inputs": [],
      "name": "fundCount",
      "outputs": [
        {
          "internalType": "uint256",
          "name": "",
          "type": "uint256"
        }
      ],
      "payable": false,
      "stateMutability": "view",
      "type": "function"
    },
    {
      "constant": true,
      "inputs": [
        {
          "internalType": "uint256",
          "name": "",
          "type": "uint256"
        }
      ],
      "name": "funds",
      "outputs": [
        {
          "internalType": "uint256",
          "name": "id",
          "type": "uint256"
        },
        {
          "internalType": "string",
          "name": "name",
          "type": "string"
        },
        {
          "internalType": "address payable",
          "name": "fundOwner",
          "type": "address"
        },
        {
          "internalType": "uint256",
          "name": "targetAmount",
          "type": "uint256"
        },
        {
          "internalType": "uint256",
          "name": "currentAmount",
          "type": "uint256"
        }
      ],
      "payable": false,
      "stateMutability": "view",
      "type": "function"
    },
    {
      "constant": true,
      "inputs": [],
      "name": "name",
      "outputs": [
        {
          "internalType": "string",
          "name": "",
          "type": "string"
        }
      ],
      "payable": false,
      "stateMutability": "view",
      "type": "function"
    },
    {
      "constant": false,
      "inputs": [
        {
          "internalType": "string",
          "name": "_name",
          "type": "string"
        },
        {
          "internalType": "uint256",
          "name": "_targetAmount",
          "type": "uint256"
        }
      ],
      "name": "createFund",
      "outputs": [],
      "payable": false,
      "stateMutability": "nonpayable",
      "type": "function"
    },
    {
      "constant": false,
      "inputs": [
        {
          "internalType": "uint256",
          "name": "_id",
          "type": "uint256"
        }
      ],
      "name": "donate",
      "outputs": [],
      "payable": true,
      "stateMutability": "payable",
      "type": "function"
    },
    {
      "constant": false,
      "inputs": [
        {
          "internalType": "uint256",
          "name": "_id",
          "type": "uint256"
        }
      ],
      "name": "deleteFund",
      "outputs": [],
      "payable": false,
      "stateMutability": "nonpayable",
      "type": "function"
    }
  ],
  "bytecode": "0x6080604052600060015534801561001557600080fd5b506040518060400160405280600b81526020017f43726f776466756e64657200000000000000000000000000000000000000000081525060009080519060200190610061929190610067565b5061010c565b828054600181600116156101000203166002900490600052602060002090601f016020900481019282601f106100a857805160ff19168380011785556100d6565b828001600101855582156100d6579182015b828111156100d55782518255916020019190600101906100ba565b5b5090506100e391906100e7565b5090565b61010991905b808211156101055760008160009055506001016100ed565b5090565b90565b61103c8061011b6000396000f3fe6080604052600436106100555760003560e01c806306fdde031461005a5780633f936ff5146100ea57806353be1c2d1461011557806366785b52146101e75780637b8e889514610222578063f14faf6f1461031e575b600080fd5b34801561006657600080fd5b5061006f61034c565b6040518080602001828103825283818151815260200191508051906020019080838360005b838110156100af578082015181840152602081019050610094565b50505050905090810190601f1680156100dc5780820380516001836020036101000a031916815260200191505b509250505060405180910390f35b3480156100f657600080fd5b506100ff6103ea565b6040518082815260200191505060405180910390f35b34801561012157600080fd5b506101e56004803603604081101561013857600080fd5b810190808035906020019064010000000081111561015557600080fd5b82018360208201111561016757600080fd5b8035906020019184600183028401116401000000008311171561018957600080fd5b91908080601f016020809104026020016040519081016040528093929190818152602001838380828437600081840152601f19601f820116905080830192505050505050509192919290803590602001909291905050506103f0565b005b3480156101f357600080fd5b506102206004803603602081101561020a57600080fd5b81019080803590602001909291905050506105e6565b005b34801561022e57600080fd5b5061025b6004803603602081101561024557600080fd5b8101908080359060200190929190505050610991565b60405180868152602001806020018573ffffffffffffffffffffffffffffffffffffffff1673ffffffffffffffffffffffffffffffffffffffff168152602001848152602001838152602001828103825286818151815260200191508051906020019080838360005b838110156102df5780820151818401526020810190506102c4565b50505050905090810190601f16801561030c5780820380516001836020036101000a031916815260200191505b50965050505050505060405180910390f35b61034a6004803603602081101561033457600080fd5b8101908080359060200190929190505050610a7f565b005b60008054600181600116156101000203166002900480601f0160208091040260200160405190810160405280929190818152602001828054600181600116156101000203166002900480156103e25780601f106103b7576101008083540402835291602001916103e2565b820191906000526020600020905b8154815290600101906020018083116103c557829003601f168201915b505050505081565b60015481565b60008251116103fe57600080fd5b6000811161040b57600080fd5b6001600081548092919060010191905055506040518060a0016040528060015481526020018381526020013373ffffffffffffffffffffffffffffffffffffffff1681526020018281526020016000815250600260006001548152602001908152602001600020600082015181600001556020820151816001019080519060200190610498929190610e28565b5060408201518160020160006101000a81548173ffffffffffffffffffffffffffffffffffffffff021916908373ffffffffffffffffffffffffffffffffffffffff16021790555060608201518160030155608082015181600401559050507fcb4040027ff9d8309bd4d794ce309d6ca997871a89c534ec2d26b36d51475a6d600154833384600060405180868152602001806020018573ffffffffffffffffffffffffffffffffffffffff1673ffffffffffffffffffffffffffffffffffffffff168152602001848152602001838152602001828103825286818151815260200191508051906020019080838360005b838110156105a4578082015181840152602081019050610589565b50505050905090810190601f1680156105d15780820380516001836020036101000a031916815260200191505b50965050505050505060405180910390a15050565b6000811180156105f857506001548111155b61060157600080fd5b610609610ea8565b600260008381526020019081526020016000206040518060a001604052908160008201548152602001600182018054600181600116156101000203166002900480601f0160208091040260200160405190810160405280929190818152602001828054600181600116156101000203166002900480156106ca5780601f1061069f576101008083540402835291602001916106ca565b820191906000526020600020905b8154815290600101906020018083116106ad57829003601f168201915b505050505081526020016002820160009054906101000a900473ffffffffffffffffffffffffffffffffffffffff1673ffffffffffffffffffffffffffffffffffffffff1673ffffffffffffffffffffffffffffffffffffffff168152602001600382015481526020016004820154815250509050600260006001805403815260200190815260200160002060026000848152602001908152602001600020600082015481600001556001820181600101908054600181600116156101000203166002900461079a929190610eed565b506002820160009054906101000a900473ffffffffffffffffffffffffffffffffffffffff168160020160006101000a81548173ffffffffffffffffffffffffffffffffffffffff021916908373ffffffffffffffffffffffffffffffffffffffff160217905550600382015481600301556004820154816004015590505060026000600180540381526020019081526020016000206000808201600090556001820160006108499190610f74565b6002820160006101000a81549073ffffffffffffffffffffffffffffffffffffffff0219169055600382016000905560048201600090555050600160008154809291906001900391905055507f4a477fcd887f69fbcdfa246406fcbc61baf8ba8324cd9806318437069562799082826020015183604001518460600151856080015160405180868152602001806020018573ffffffffffffffffffffffffffffffffffffffff1673ffffffffffffffffffffffffffffffffffffffff168152602001848152602001838152602001828103825286818151815260200191508051906020019080838360005b8381101561094f578082015181840152602081019050610934565b50505050905090810190601f16801561097c5780820380516001836020036101000a031916815260200191505b50965050505050505060405180910390a15050565b6002602052806000526040600020600091509050806000015490806001018054600181600116156101000203166002900480601f016020809104026020016040519081016040528092919081815260200182805460018160011615610100020316600290048015610a435780601f10610a1857610100808354040283529160200191610a43565b820191906000526020600020905b815481529060010190602001808311610a2657829003601f168201915b5050505050908060020160009054906101000a900473ffffffffffffffffffffffffffffffffffffffff16908060030154908060040154905085565b610a87610ea8565b600260008381526020019081526020016000206040518060a001604052908160008201548152602001600182018054600181600116156101000203166002900480601f016020809104026020016040519081016040528092919081815260200182805460018160011615610100020316600290048015610b485780601f10610b1d57610100808354040283529160200191610b48565b820191906000526020600020905b815481529060010190602001808311610b2b57829003601f168201915b505050505081526020016002820160009054906101000a900473ffffffffffffffffffffffffffffffffffffffff1673ffffffffffffffffffffffffffffffffffffffff1673ffffffffffffffffffffffffffffffffffffffff168152602001600382015481526020016004820154815250509050600081608001518260600151039050600083118015610bde57506001548311155b610be757600080fd5b600034118015610bf75750803411155b610c0057600080fd5b816040015173ffffffffffffffffffffffffffffffffffffffff163373ffffffffffffffffffffffffffffffffffffffff161415610c89576040517f08c379a0000000000000000000000000000000000000000000000000000000008152600401808060200182810382526026815260200180610fe26026913960400191505060405180910390fd5b6000826040015190508073ffffffffffffffffffffffffffffffffffffffff166108fc349081150290604051600060405180830381858888f19350505050158015610cd8573d6000803e3d6000fd5b50348360800151018360800181815250508260026000868152602001908152602001600020600082015181600001556020820151816001019080519060200190610d23929190610e28565b5060408201518160020160006101000a81548173ffffffffffffffffffffffffffffffffffffffff021916908373ffffffffffffffffffffffffffffffffffffffff1602179055506060820151816003015560808201518160040155905050837f98302f0889632d5703893b0e2fd928e5fb0a7e4b9f0c48f2846f55faa58eafd0343384604051808481526020018373ffffffffffffffffffffffffffffffffffffffff1673ffffffffffffffffffffffffffffffffffffffff1681526020018273ffffffffffffffffffffffffffffffffffffffff1673ffffffffffffffffffffffffffffffffffffffff168152602001935050505060405180910390a250505050565b828054600181600116156101000203166002900490600052602060002090601f016020900481019282601f10610e6957805160ff1916838001178555610e97565b82800160010185558215610e97579182015b82811115610e96578251825591602001919060010190610e7b565b5b509050610ea49190610fbc565b5090565b6040518060a001604052806000815260200160608152602001600073ffffffffffffffffffffffffffffffffffffffff16815260200160008152602001600081525090565b828054600181600116156101000203166002900490600052602060002090601f016020900481019282601f10610f265780548555610f63565b82800160010185558215610f6357600052602060002091601f016020900482015b82811115610f62578254825591600101919060010190610f47565b5b509050610f709190610fbc565b5090565b50805460018160011615610100020316600290046000825580601f10610f9a5750610fb9565b601f016020900490600052602060002090810190610fb89190610fbc565b5b50565b610fde91905b80821115610fda576000816000905550600101610fc2565b5090565b9056fe596f752063616e277420646f6e61746520746f20796f7572206f776e2063616d706169676e2ea265627a7a72315820bee24431141a97f5b223ff6ff5f24f54272a25eeaf2263c4252559bcc910516964736f6c63430005100032",
  "source": "pragma solidity >=0.4.22 <0.8.0;\n\ncontract Crowdfunder {\n\n    string public name;\n\n    uint public fundCount = 0;\n\n    struct Fund {\n        uint id;\n        string name;\n        address payable fundOwner;\n        uint targetAmount;\n        uint currentAmount;\n    }\n\n    event FundCreated(\n        uint id,\n        string name,\n        address payable fundOwner,\n        uint targetAmount,\n        uint currentAmount\n    );\n\n    event DonationMade(\n        uint indexed id,\n        uint amount,\n        address payable donor,\n        address payable fundOwner\n\n    );\n\n    event FundDeleted(\n        uint id,\n        string name,\n        address payable fundOwner,\n        uint targetAmount,\n        uint currentAmount\n    );\n\n\n    mapping(uint => Fund) public funds;\n\n    constructor() public {\n        name = \"Crowdfunder\";\n    }\n    \n\n    function createFund(string memory _name, uint _targetAmount) public {\n        require(bytes(_name).length > 0);\n        require(_targetAmount > 0);\n        fundCount++;\n\n        funds[fundCount] = Fund(fundCount, _name, msg.sender, _targetAmount, 0);\n        emit FundCreated(fundCount, _name, msg.sender, _targetAmount, 0);\n\n\n    }\n\n    function donate(uint _id) payable public  {\n        Fund memory _fund = funds[_id];\n        uint _deficit = _fund.targetAmount - _fund.currentAmount;\n        require(_id > 0 && _id <= fundCount);\n        require(msg.value > 0 && msg.value <= _deficit);\n        require(msg.sender != _fund.fundOwner, \"You can't donate to your own campaign.\");\n\n        address payable _fundOwner = _fund.fundOwner;\n        _fundOwner.transfer(msg.value);\n        _fund.currentAmount = _fund.currentAmount + msg.value;\n        funds[_id] = _fund;\n\n\n        emit DonationMade(_id, msg.value, msg.sender, _fundOwner);\n\n    }\n\n\n\n\n    function deleteFund(uint _id) public {\n        require(_id > 0 && _id <= fundCount);\n        \n\n        Fund memory _fund = funds[_id];\n        funds[_id] = funds[fundCount - 1];\n        delete funds[fundCount - 1];\n        fundCount--;\n\n\n        emit FundDeleted(_id, _fund.name, _fund.fundOwner, _fund.targetAmount, _fund.currentAmount);\n\n    }\n\n\n}",
  "sourcePath": "/Users/jakewarren/Desktop/Coding/Blockchain/crowdfunding/contracts/Crowdfunder.sol",
  "compiler": {
    "name": "solc",
    "version": "0.5.16+commit.9c3226ce.Emscripten.clang"
  },
  "schemaVersion": "3.2.3",
  "updatedAt": "2021-08-02T22:55:28.204Z",
  "networkType": "ethereum",
  "devdoc": {
    "methods": {}
  },
  "userdoc": {
    "methods": {}
  }
}